S01A00004763634D61747269785753323831322056332E7372656368
S113000033C000004DC000004BC0000049C00000D8
S113001047C0000045C0000043C0000041C00000CC
S11300203FC000003DC000003BC0000039C00000DC
S113003037C0000035C0000075C1000031C00000A9
S11300402FC000002DC0000047C200002CC20000D9
S113005027C0000025C0000023C0000021C000000C
S11300601FC000001DC0000011241FBECFEFD8E048
S1130070DEBFCDBF11E0A0E0B1E0ECE1F1E102C0F0
S113008005900D92A434B107D9F723E0A4E4B1E0BC
S113009001C01D92A73AB207E1F7FCD70C948C0873
S11300A0AFCF7F9374B1726074B975B17D7F75B948
S11300B03DD07F910895F8940F931F934F9370E46C
S11300C0E82FF92F07D07A95E9F74F911F910F91F7
S11300D0789408957F9313E0019148E075B17260BC
S11300E075B9001F78F0000075B17D7F75B9000007
S11300F000000000000000000000000000004A951D
S113010069F710C0000000000000000000000000BB
S113011000000000000075B17D7F75B900004A95AC
S1130120E9F600001A95C1F67F9108953F934F9325
S11301305F9352E33FEF4FEF3A95F1F73FEF4A9564
S1130140D9F74FEF5A95C1F75F914F913F910895B9
S11301504F934AB141694AB944B1416044B94F919E
S1130160089588307CF464306CF40DD01ED014D023
S1130170862F1BD049B140614BB90000000049B142
S11301804F7E4BB908955F9350E0E4EEF1E0E80F41
S1130190F51F84915F9108955F9350E0ECEEF1E0D8
S11301A0E60FF51F64915F9108957F932F934F930A
S11301B05F9378E050E020E08795251F43B14E7FA0
S11301C0422B45B949B140684BB90000000049B120
S11301D04F774BB97A95703071F75F914F912F91AA
S11301E07F91089531FD9F25AB9FD5FF804020105E
S11301F0EAE7F0E0808187608083ACE7B0E08C912F
S113020080648C9380818068808380818064808313
S11302100895ECE7F0E09081907F90839081892BA2
S11302208083EAE7F0E0808180648083808186FDBA
S1130230FDCF8091780090917900089584E0E9CF12
S1130240089585E0E6CF089589E491E0909347010D
S11302508093460190934501809344011092480194
S1130260089590914801943120F08FEF80934801D4
S11302700895E0914601F09147019F012F5F3F4FA0
S11302803093470120934601808381E0890F809356
S113029048012D55314031F429E431E030934701D0
S11302A0209346010895CDDF8935924040F0809136
S11302B0610187307CF48F5F809361010BC0C1DFE3
S11302C08039914038F48091610118161CF48150F2
S11302D080936101B3DF8935924040F080916001E1
S11302E018167CF48150809360010895A7DF80394B
S11302F0914038F48091600187301CF48F5F8093C3
S11303006001089589B1807480930001089582E0AA
S113031084BD94E095BD9DE797BD80936E00259ABA
S11303202D9808951F920F920FB60F9211242F93B8
S11303303F934F935F936F937F938F939F93AF9369
S1130340BF93EF93FF936091030170910401E091D7
S11303500301F0910401E15CFE4F808102DF809192
S11303606201813069F46091030170910401E091AC
S11303700301F0910401E15CFE4F8081F2DE3DC097
S1130380823069F46091030170910401E0910301EA
S1130390F0910401E55CFE4F8081E3DE2EC09DEF09
S11303A0980F923050F52091030130910401232BD2
S11303B021F460E084E0D5DE20C020910301309177
S11303C004012130310521F461E085E0CADE15C065
S11303D020910301309104012230310521F462E0BF
S11303E086E0BFDE0AC0209103013091040123306E
S11303F0310519F463E08150B4DE809103019091DA
S11304000401892B51F0809103019091040101971B
S1130410909304018093030106C083E090E09093DD
S11304200401809303018091010190910201892BC1
S113043051F0809101019091020101979093020182
S11304408093010108C082E390E0909302018093BD
S1130450010129DF57DFFF91EF91BF91AF919F9188
S11304608F917F916F915F914F913F912F910F9059
S11304700FBE0F901F9018951092C50087E68093C9
S1130480C40086E08093C200E1ECF0E088E1808360
S1130490808180688083D8DE8FE99FE00197F1F73F
S11304A000C0000008951F920F920FB60F921124FE
S11304B08F93EF93FF93809164018093C600E1ECE6
S11304C0F0E080818F7D8083FF91EF918F910F9079
S11304D00FBE0F901F9018951F920F920FB60F9298
S11304E011242F933F934F935F936F937F938F9335
S11304F09F93AF93BF93EF93FF938091C600B1DEB8
S1130500FF91EF91BF91AF919F918F917F916F91E7
S11305105F914F913F912F910F900FBE0F901F90BD
S11305201895CF93DF93CDB7DEB727970FB6F8941E
S1130530DEBF0FBECDBFDE01119687E0FD01119233
S11305408A95E9F7E1E1F1E02AE131E091E0828185
S1130550813009F49C9333961196E217F307B9F7A7
S113056080910701813009F48C8380910A018130E4
S113057009F48E8380910D01813009F48D8380917B
S11305801001813009F48F8331E08981813009F0D1
S113059030E081E09A81913009F080E0832331E0FA
S11305A09B81913009F030E0832321E09C819130DC
S11305B009F020E0982F922381E02D81213009F069
S11305C080E0892391E02E81213009F090E0982386
S11305D081E02F81213009F080E0892327960FB62E
S11305E0F894DEBF0FBECDBFDF91CF910895CF93B6
S11305F0DF93CDB7DEB727970FB6F894DEBF0FBEF3
S1130600CDBFDE01119687E0FD0111928A95E9F7CD
S1130610E6E2F1E02FE231E091E08281813009F4F9
S11306209C9333961196E217F307B9F780911C0156
S1130630813009F48C8380911F01813009F48E8309
S113064080912201813009F48D83809125018130CC
S113065009F48F8331E08981813009F030E081E051
S11306609A81913009F080E0832331E09B819130BD
S113067009F030E0832321E09C81913009F020E0EF
S1130680982F922381E02D81213009F080E0892385
S113069091E02E81213009F090E0982381E02F81B0
S11306A0213009F080E0892327960FB6F894DEBF45
S11306B00FBECDBFDF91CF910895482F50E014169F
S11306C015066CF591E02FEF34E38CE021503040B7
S11306D08040E1F700C000002FEF34E38CE02150AC
S11306E030408040E1F700C000002FEF34E38CE09D
S11306F0215030408040E1F700C000002FEF34E388
S11307008CE0215030408040E1F700C000009F5F42
S1130710292F092E000C330B42175307A4F6089512
S1130720CF93DF93E7E2F2E065E671E0C7EED2E053
S11307300FC02191319141912D933D934D93E81731
S1130740F907B9F7685E7F4FFC01C817D90721F094
S1130750CF014896DB01EDCFDF91CF910895CF9380
S1130760DF93E7EEF2E065E671E0C7EAD3E00FC09D
S11307702191319141912D933D934D93E817F907C0
S1130780B9F7685E7F4FFC01C817D90721F0CF0184
S11307904896DB01EDCFDF91CF910895AF92BF92E0
S11307A0CF92DF92EF92FF920F931F93CF93DF9339
S11307B0E6E2F1E0CFE2D1E0482F880F550B062E98
S11307C0000C770B81E0F12CDB01AA0FBB1F9D010C
S11307D0260F371FDA01AA0FBB1FA40FB51FAA0FDC
S11307E0BB1FAA0FBB1FAA0FBB1FA20FB31F9D01E4
S11307F0295D3D4F59018F01208130E0982F241746
S1130800350709F09F2D9923C1F0D80111962C9139
S113081030E0982F2617370709F09F2D992369F0A8
S1130820D80112968C93C0903501D0903601E09097
S11308303701D501CD92DD92EC923396EC17FD078A
S1130840D1F6DF91CF911F910F91FF90EF90DF9040
S1130850CF90BF90AF900895AF92BF92CF92DF92A6
S1130860EF92FF920F931F93CF93DF93E1E1F1E0B7
S1130870CAE1D1E0482F880F550B062E000C770BE8
S113088081E0F12CDB01AA0FBB1F9D01260F371F4E
S1130890DA01AA0FBB1FA40FB51FAA0FBB1FAA0F13
S11308A0BB1FAA0FBB1FA20FB31F9D0129513D4FB0
S11308B059018F01208130E0982F2417350709F062
S11308C09F2D9923C1F0D80111962C9130E0982FD7
S11308D02617370709F09F2D992369F0D80112963E
S11308E08C93C0903501D0903601E0903701D5014A
S11308F0CD92DD92EC923396EC17FD07D1F6DF91A1
S1130900CF911F910F91FF90EF90DF90CF90BF9008
S1130910AF9008954F925F926F927F928F92AF92B1
S1130920BF92CF92DF92EF92FF920F931F93CF93D8
S1130930DF93EAE1F1E00F2EF6E2EF2EF1E0FF2E75
S1130940F02D082E000C990B062E000C770BBB24FF
S1130950B394A12C9B01220F331FA901460F571FEB
S11309609C01220F331F280F391F220F331F220F20
S1130970331F220F331F240F351FA901495D5D4F1B
S11309802A01EF01208130E0418150E01B2D28171E
S1130990390709F01A2D112309F452C01B2D4617EB
S11309A0570709F01A2D112309F44AC0BA821D8190
S11309B01130D9F58A01000F111F400F511F890111
S11309C0000F111F200F311F220F331F220F331F5F
S11309D0220F331F420F531F495D5D4F6090350155
S11309E07090360180903701DA016D927D928C927D
S11309F04C8150E02B8130E0EA01CC0FDD1F4C0F1D
S1130A005D1FE901CC0FDD1FC20FD31FCC0FDD1F0B
S1130A10CC0FDD1FCC0FDD1F4C0F5D1FEA01C95D3C
S1130A20DD4F688279828A8263C020912F013091E0
S1130A30300140913101D2012D933D934C9358C024
S1130A400B8110E0CC80D12C8B2C8017910709F0FE
S1130A508A2C882009F44CC08B2C6C157D0509F078
S1130A608A2C882009F444C0BD82CA81C130B1F502
S1130A70EA01CC0FDD1F4C0F5D1FE901CC0FDD1F18
S1130A80C20FD31FCC0FDD1FCC0FDD1FCC0FDD1F1A
S1130A904C0F5D1FEA01C95DDD4F20913501309196
S1130AA0360140913701288339834A83E601CC0F0C
S1130AB0DD1FCC0EDD1EE801CC0FDD1FC00FD11FE2
S1130AC0CC0FDD1FCC0FDD1FCC0FDD1FCC0DDD1DCA
S1130AD0C95DDD4F288339834A830AC020912F01E1
S1130AE03091300140913101D2012D933D934C93CB
S1130AF03696EE15FF0509F044CFDF91CF911F9193
S1130B000F91FF90EF90DF90CF90BF90AF908F90B8
S1130B107F906F905F904F900895CF93DF93C82F8D
S1130B20D62FE62F062E000CFF0B082E000C990B77
S1130B309F01220F331FE20FF31F9C01220F331F6B
S1130B40820F931F880F991F880F991F880F991F71
S1130B50E80FF91FE95DFD4F809132019091330157
S1130B60A091340180839183A2838C2F17DE6D2F93
S1130B708C2FD0DEDF91CF9108950F931F93CF93E5
S1130B80DF9300D0CDB7DEB784E190E09A83898308
S1130B9080910001882309F473C004E110E0898185
S1130BA09A81892B39F5BCDDE0916001F0E08091F8
S1130BB0610190E09F01220F331FE20FF31F9C019C
S1130BC0220F331F820F931F880F991F880F991FBD
S1130BD0880F991FE80FF91FEB59FE4F80913801D8
S1130BE090913901A0913A0180839183A2831A8361
S1130BF0098334C089819A810A9754F191DDE09187
S1130C006001F0E08091610190E09F01220F331FA9
S1130C10E20FF31F9C01220F331F820F931F880FD3
S1130C20991F880F991F880F991FE80FF91FEB5917
S1130C30FE4F8091380190913901A0913A0180834F
S1130C409183A28389819A8101979A83898306C0BB
S1130C5067DD89819A8101979A838983809125022E
S1130C609091260228DA2FEF89EF90E021508040FE
S1130C709040E1F700C000008091000181118FCF06
S1130C80609160018091610148DF4ADD8091250215
S1130C909091260210DA83E010DD81E080936201F6
S1130CA00F900F90DF91CF911F910F9108954F9264
S1130CB05F926F927F928F92AF92BF92CF92DF92A8
S1130CC0EF92FF920F931F93CF93DF93E5E0F1E050
S1130CD00F2EF1E1EF2EF1E0FF2EF02D082E000C87
S1130CE0990B062E000C770BBB24B394A12C9B010B
S1130CF0220F331FA901460F571F9C01220F331FD8
S1130D00280F391F220F331F220F331F220F331FC7
S1130D10240F351FA90149515D4F2A01EF0120819C
S1130D2030E0418150E01B2D2817390709F01A2DB6
S1130D30112309F452C01B2D4617570709F01A2D29
S1130D40112309F44AC0BA821D811130D9F58A01F0
S1130D50000F111F400F511F8901000F111F200F99
S1130D60311F220F331F220F331F220F331F420F55
S1130D70531F49515D4F609035017090360180904A
S1130D803701DA016D927D928C924C8150E02B8177
S1130D9030E0EA01CC0FDD1F4C0F5D1FE901CC0FE1
S1130DA0DD1FC20FD31FCC0FDD1FCC0FDD1FCC0FF7
S1130DB0DD1F4C0F5D1FEA01C951DD4F6882798246
S1130DC08A8263C020912F0130913001409131011A
S1130DD0D2012D933D934C9358C00B8110E0CC80ED
S1130DE0D12C8B2C8017910709F08A2C882009F4C8
S1130DF04CC08B2C6C157D0509F08A2C882009F4D5
S1130E0044C0BD82CA81C130B1F5EA01CC0FDD1FF7
S1130E104C0F5D1FE901CC0FDD1FC20FD31FCC0F98
S1130E20DD1FCC0FDD1FCC0FDD1F4C0F5D1FEA0152
S1130E30C951DD4F20913501309136014091370180
S1130E40288339834A83E601CC0FDD1FCC0EDD1ED7
S1130E50E801CC0FDD1FC00FD11FCC0FDD1FCC0F5D
S1130E60DD1FCC0FDD1FCC0DDD1DC951DD4F2883E7
S1130E7039834A830AC020912F0130913001409177
S1130E803101D2012D933D934C933696EE15FF0517
S1130E9009F044CFDF91CF911F910F91FF90EF9014
S1130EA0DF90CF90BF90AF908F907F906F905F90C6
S1130EB04F900895CF93DF93C82FD62FE62F062E99
S1130EC0000CFF0B082E000C990B9F01220F331FFF
S1130ED0E20FF31F9C01220F331F820F931F880F11
S1130EE0991F880F991F880F991FE80FF91FE9515F
S1130EF0FD4F8091320190913301A09134018083A0
S1130F009183A2838C2FA8DC6D2F8C2FD0DEDF91F0
S1130F10CF9108950F931F93CF93DF9300D0CDB754
S1130F20DEB784E190E09A8389838091000188236D
S1130F3009F473C004E110E089819A81892B39F5A1
S1130F400EDCE0916001F0E08091610190E09F018E
S1130F50220F331FE20FF31F9C01220F331F820F56
S1130F60931F880F991F880F991F880F991FE80FE7
S1130F70F91FEB59FE4F8091380190913901A091EE
S1130F803A0180839183A2831A83098334C08981BF
S1130F909A810A9754F1E3DBE0916001F0E08091DB
S1130FA0610190E09F01220F331FE20FF31F9C01A8
S1130FB0220F331F820F931F880F991F880F991FC9
S1130FC0880F991FE80FF91FEB59FE4F80913801E4
S1130FD090913901A0913A0180839183A283898100
S1130FE09A8101979A83898306C0B9DB89819A81A2
S1130FF001979A83898380912502909126025BD878
S11310002FEF89EF90E0215080409040E1F700C03D
S113101000008091000181118FCF60916001809167
S1131020610148DF9CDB809125029091260243D820
S113103083E043DB82E0809362010F900F90DF91A5
S1131040CF911F910F910895D3E0C4E019C062DFDE
S1131050809162018130D9F364DA813019F4D0933C
S1131060620109C080916201823029F486DD809199
S113107062018230D9F3BBDA813011F4C09362018A
S1131080809162019FEF980F923018F48130F9F249
S1131090E3CFFFCF06D83BD9EFD9AAD859D881E0FE
S11310A08093620185E691E0909326028093250265
S11310B0E7E2F2E047EE52E015C080915D019091C5
S11310C05E01A0915F0181939193A193E217F307CD
S11310D0A1F7F9014217530729F4E7EEF2E047EAD2
S11310E053E014C09F01285E3F4FE7CF80915D011C
S11310F090915E01A0915F0181939193A193E21776
S1131100F307A1F7F9014217530721F09F01285E65
S10F11103F4FECCF789498DFF894FFCFA9
S113111C0132000300060600070600020200020367
S113112C0001060001040003040007070007060081
S113113C0505000405000003000203000603001E5D
S113114C1E0000001E001E00190000000103070011
S107115C0102070081
S9030000FC
