:1000000033C000004CC000004AC0000048C00000DF
:1000100046C0000044C0000042C0000040C00000D4
:100020003EC000003CC000003AC0000038C00000E4
:1000300036C0000034C0000040C1000030C00000E5
:100040002EC000002CC00000A6C100008BC1000023
:1000500026C0000024C0000022C0000020C0000014
:100060001EC000001CC0000011241FBECFEFD8E04E
:10007000DEBFCDBF11E0A0E0B1E0E4ECF5E002C0EE
:1000800005900D92A433B107D9F722E0A4E3B1E0C3
:1000900001C01D92A431B207E1F7D0D191C2B0CF17
:1000A0007F9374B1726074B975B17D7F75B93DD0BD
:1000B0007F910895F8940F931F934F9370E4E82F66
:1000C000F92F07D07A95E9F74F911F910F91789406
:1000D00008957F9313E0019148E075B1726075B99E
:1000E000001F78F0000075B17D7F75B90000000039
:1000F0000000000000000000000000004A9569F7C1
:1001000010C000000000000000000000000000001F
:100110000000000075B17D7F75B900004A95E9F6D1
:1001200000001A95C1F67F9108953F934F935F9316
:1001300052E33FEF4FEF3A95F1F73FEF4A95D9F78A
:100140004FEF5A95C1F75F914F913F9108954F93AB
:100150004AB141694AB944B1416044B94F910895E7
:100160008B3084F46A9564306CF40DD01ED014D0BA
:10017000862F1BD049B140614BB90000000049B146
:100180004F7E4BB908955F9350E0E4EEF1E0E80F45
:10019000F51F84915F9108955F9350E0E0EFF1E0E7
:1001A000E60FF51F64915F9108957F932F934F930E
:1001B0005F9378E050E020E08795251F43B14E7FA4
:1001C000422B45B949B140684BB90000000049B124
:1001D0004F774BB97A95703071F75F914F912F91AE
:1001E0007F910895039F250D9949411F0119FF0033
:1001F00080402010EAE7F0E0808187608083ACE7F0
:10020000B0E08C9180648C93808180688083808151
:10021000806480830895ECE7F0E09081907F908384
:100220009081892B8083EAE7F0E08081806480837D
:10023000808186FDFDCF80917800909179000895AE
:1002400085E0E9CF089589E391E0909337018093A9
:10025000360190933501809334011092380108954E
:1002600090913801943120F08FEF809338010895F8
:10027000E0913601F09137019F012F5F3F4F30939E
:10028000370120933601808381E0890F8093380104
:100290002D54314031F429E331E03093370120937C
:1002A0003601089582E084BD94E095BD9DE797BD39
:1002B00080936E00259A2D9808951F920F920FB685
:1002C0000F9211248F939F938091000190910101CF
:1002D000892B51F080910001909101010197909339
:1002E0000101809300010AC088E290E0909301012F
:1002F0008093000195B180E2892785B99F918F9104
:100300000F900FBE0F901F9018951092C50087E6B2
:100310008093C40086E08093C200E1ECF0E088E1C5
:1003200080838081806880838EDF8FE99FE00197E2
:10033000F1F700C000000895E0ECF0E0908195FF37
:10034000FDCF8093C6000895CF93DF93EC018881A1
:10035000882329F02196F0DF89918111FCCFDF916C
:10036000CF9108951F920F920FB60F9211248F9381
:10037000EF93FF93809151018093C600E1ECF0E090
:1003800080818F7D8083FF91EF918F910F900FBEC1
:100390000F901F9018951F920F920FB60F92112475
:1003A0002F933F934F935F936F937F938F939F937D
:1003B000AF93BF93EF93FF938091C60051DFFF91FE
:1003C000EF91BF91AF919F918F917F916F915F91CD
:1003D0004F913F912F910F900FBE0F901F90189546
:1003E000E2E5F1E042E152E010C080914D019091D0
:1003F0004E01A0914F0181939193A193E217F307CE
:10040000A1F7F9014217530721F09F01285E3F4FE2
:10041000ECCF089515DF8935924020F088E291E015
:1004200093CF08950DDF8039914020F48BE291E065
:100430008BCF089580E391E087CF089531DE32DFDE
:1004400064DFD8DE84DE82E591E09093130280932E
:100450001202789482E091E077DF63E084E080DE4E
:10046000BFDF809112029091130224DE2FEF89E604
:1004700098E1215080409040E1F700C000000F2E2D
:10048000F2E5AF2EF1E0BF2EF02D22E132E0F501D2
:100490008091220190912301A09124018083918376
:1004A000A2838091250190912601A0912701848744
:1004B0009587A68780911F0190912001A09121012D
:1004C000858B968BA78B80911C0190911D01A0912B
:1004D0001E0181879287A3878787908BA18B78964F
:1004E000E217F307A9F68091120290911302E2DD60
:1004F000EFEFF5EA2EE0E150F0402040E1F700C0D8
:1005000000006EDF0F2EF3EACF2EF1E0DF2EF02D8C
:100510000F2EFBEBEF2EF1E0FF2EF02DC6EAD1E01F
:100520000EEB11E08091220190912301A091240112
:10053000F60180839183A283809125019091260109
:10054000A0912701F70180839183A28380911C01F0
:1005500090911D01A0911E0188839983AA838091A7
:100560001F0190912001A0912101F80180839183C6
:10057000A28380911202909113029CDDFFEF21EE85
:1005800084E0F15020408040E1F700C0000028DF07
:100590009BE1C91AD108E5E1EE0EF11C6597055EF5
:1005A0001F4FAC16BD0609F0BDCF34DFFFEF21EEC3
:1005B00084E0F15020408040E1F700C00000F5CF1A
:0405C000F894FFCFDD
:1005C400280048656C6C6F2066726F6D2041546D15
:1005D400656761333238700D0A2020001E1E00004A
:1005E400001E001E00190000555000444F574E00D5
:0405F4006F6B000029
:00000001FF
