:1000000033C000004CC000004AC0000048C00000DF
:1000100046C0000044C0000042C0000040C00000D4
:100020003EC000003CC000003AC0000038C00000E4
:1000300036C0000034C00000F5C0000030C0000031
:100040002EC000002CC000005DC1000042C10000B5
:1000500026C0000024C0000022C0000020C0000014
:100060001EC000001CC0000011241FBECFEFD8E04E
:10007000DEBFCDBF11E0A0E0B1E0ECEAF5E002C0E8
:1000800005900D92A832B107D9F722E0A8E2B1E0BD
:1000900001C01D92A830B207E1F79ED185C2B0CF52
:1000A0007F9374B1726074B975B17D7F75B93DD0BD
:1000B0007F910895F8940F931F934F9370E4E82F66
:1000C000F92F07D07A95E9F74F911F910F91789406
:1000D00008957F9313E0019148E075B1726075B99E
:1000E000001F78F0000075B17D7F75B90000000039
:1000F0000000000000000000000000004A9569F7C1
:1001000010C000000000000000000000000000001F
:100110000000000075B17D7F75B900004A95E9F6D1
:1001200000001A95C1F67F9108953F934F935F9316
:1001300052E33FEF4FEF3A95F1F73FEF4A95D9F78A
:100140004FEF5A95C1F75F914F913F9108956463C6
:100150006200640000006400EAE7F0E080818760EC
:100160008083ACE7B0E08C9180648C938081806860
:1001700080838081806480830895ECE7F0E0908143
:10018000907F90839081892B8083EAE7F0E08081E3
:1001900080648083808186FDFDCF8091780090917E
:1001A0007900089584E0E9CF089585E0E6CF0895C9
:1001B0008DE291E090932B0180932A019093290185
:1001C0008093280110922C01089590912C01943174
:1001D00020F08FEF80932C010895E0912A01F09197
:1001E0002B019F012F5F3F4F30932B0120932A015A
:1001F000808381E0890F80932C012154314031F4B8
:100200002DE231E030932B0120932A01089582E002
:1002100084BD94E095BD9DE797BD80936E00259ABF
:100220002D9808951F920F920FB60F9211248F935D
:100230009F938091000190910101892B51F0809151
:1002400000019091010101979093010180930001B9
:100250000AC088E290E0909301018093000195B17B
:1002600080E2892785B99F918F910F900FBE0F90E3
:100270001F9018951092C50087E68093C40086E011
:100280008093C200E1ECF0E088E1808380818068A7
:1002900080838EDF8FE99FE00197F1F700C00000B7
:1002A0000895E0ECF0E0908195FFFDCF8093C600CB
:1002B0000895F7CF0895CF93DF93EC0188818823C9
:1002C00029F02196EEDF89918111FCCFDF91CF914A
:1002D00008951F920F920FB60F9211248F93EF93F0
:1002E000FF93809145018093C600E1ECF0E08081AE
:1002F0008F7D8083FF91EF918F910F900FBE0F90B4
:100300001F9018951F920F920FB60F9211242F93E2
:100310003F934F935F936F937F938F939F93AF938D
:10032000BF93EF93FF938091C6004FDFFF91EF9152
:10033000BF91AF919F918F917F916F915F914F91FD
:100340003F912F910F900FBE0F901F901895E6E4EC
:10035000F1E046E052E010C08091410190914201ED
:10036000A091430181939193A193E217F307A1F721
:10037000F9014217530721F09F01285E3F4FECCF50
:100380000895CF93DF9300D000D01F92CDB7DEB792
:100390000CDF4AE0BE016F5F7F4FD3D0CE010196E4
:1003A0008ADF89E086DF89E084DFFCDE4AE0BE0187
:1003B0006F5F7F4FC6D0CE0101967DDF8DE079DF84
:1003C0008AE077DF2FEF80E792E021508040904075
:1003D000E1F700C00000DCCF63DE19DF4BDFBCDEDD
:1003E00086E491E09093070280930602789482E07D
:1003F00091E061DFACDF80910602909107025ADE46
:100400002FEF89E698E1215080409040E1F700C04D
:10041000000006E411E026E032E0F80180912201BC
:1004200090912301A091240180839183A2838091E4
:10043000250190912601A091270184879587A687A1
:1004400080911F0190912001A0912101858B968BB5
:10045000A78B80911C0190911D01A0911E018187A5
:100460009287A3878787908BA18B7896E217F307F3
:10047000A9F680910602909107021CDEEFEFF5EAE3
:100480002EE0E150F0402040E1F700C000005FDFC7
:100490000F2EF7E9AF2EF1E0BF2EF02D0F2EFFEA61
:1004A000CF2EF1E0DF2EF02DCAE9D1E00F2EF2EBD6
:1004B000EF2EF1E0FF2EF02D80912201909123018B
:1004C000A0912401F50180839183A283809125016D
:1004D00090912601A0912701F60180839183A28348
:1004E00080911C0190911D01A0911E018883998328
:1004F000AA8380911F0190912001A0912101F70111
:1005000080839183A2838091060290910702D2DDBD
:10051000FFEF21EE84E0F15020408040E1F700C081
:10052000000015DF9BE1A91AB108E5E1CE0ED11C50
:100530006597FBE1EF0EF11C0C171D0709F0BCCF0E
:1005400020DFBB274A3031F4992322F4BDE2909595
:1005500081959F4F01C0BB27FB015527AA27880F14
:10056000991FAA1FA41710F0A41B83955051B9F727
:10057000A05DAA3308F0A95DA193009779F7B111A6
:10058000B1931192CB0100C0DC01FC01672F719186
:100590007723E1F7329704C07C916D937083629169
:0C05A000AE17BF07C8F30895F894FFCF12
:1005AC00280048656C6C6F2066726F6D2041546D2D
:1005BC00656761333238700D0A2020001E1E000062
:0805CC00001E001E00190000D2
:00000001FF
